S01E00004543455F3338385F44657369676E5F50726F6A6563742E7372656348
S11300000C945A000C9477000C9477000C947700AD
S11300100C9477000C9477000C9477000C94770080
S11300200C9477000C9477000C9477000C94770070
S11300300C9477000C9477000C9477000C94770060
S11300400C9477000C9477000C9477000C94770050
S11300500C9477000C9477000C9477000C94770040
S11300600C9477000C9477000C9477000C94770030
S11300700C9477000C9477000C9477000C94770020
S11300800C9477000C9477000C9477000C94770010
S11300900C9477000C9477000C9477000C94770000
S11300A00C9477000C9477000C9477000C947700F0
S11300B00C94770011241FBECFEFD8E0DEBFCDBF74
S11300C011E0A0E0B1E0E0E6F3E002C005900D929B
S11300D0AC30B107D9F721E0ACE0B1E001C01D922A
S11300E0A531B207E1F70E94B8000C94AE010C945C
S11300F00000FC010FB6F894609111017091120197
S113010080911301909114010FBE309721F0608308
S11301107183828393830895806680937C00EAE7E9
S1130120F0E087E8808310927B0080818064808384
S1130130808184FFFDCF8091790008950E943B0166
S1130140382F80930D019DEC399F912D1124892F17
S1130150869586958695982F990F292F220F220F21
S1130160920F832F891B8093100180930C010895B3
S11301708EEF87B98FEF8AB91BB880E090E00E94B8
S11301807900CB010E944001E0910C01F0E0EC5FAA
S1130190FE4F80818BB980E00E948C0080930E0119
S11301A08639D8F00E949E0080930F019FEF980F2C
S11301B0963078F4E82FF0E0EC5FFE4F80818BB945
S11301C02FE38DE093E0215080409040E1F700C0A0
S11301D0000080910E018639B8F61BB8D5CF8F92F6
S11301E09F92AF92BF92CF92DF92EF92FF92CF9302
S11301F0DF93EC01688179818A819B8161157105A6
S11302008105910521F464E279ED8BE597E02DE118
S113021033EF41E050E00E944B0149015A019B0138
S1130220AC01A7EAB1E40E946A016B017C01ACEE67
S1130230B4EFA50194010E947801DC01CB018C0D7F
S11302409D1DAE1DBF1DB7FF03C00197A109B04896
S113025088839983AA83BB839F77DF91CF91FF9093
S1130260EF90DF90CF90BF90AF909F908F900895C4
S11302700E94EF00089580E091E00E94EF0008954D
S1130280A0E0B0E08093000190930101A0930201EB
S1130290B09303010895052E97FB1EF400940E9469
S11302A0620157FD07D00E947D0107FC03D04EF484
S11302B00C94620150954095309521953F4F4F4FD6
S11302C05F4F089590958095709561957F4F8F4FFE
S11302D09F4F08950E949F01A59F900DB49F900D7C
S11302E0A49F800D911D11240895B7FF0C946A01F9
S11302F00E946A01821B930B0895A1E21A2EAA1B85
S1130300BB1BFD010DC0AA1FBB1FEE1FFF1FA217C1
S1130310B307E407F50720F0A21BB30BE40BF50BBE
S1130320661F771F881F991F1A9469F76095709547
S1130330809590959B01AC01BD01CF010895A29FCA
S1130340B001B39FC001A39F700D811D1124911DA5
S1130350B29F700D811D1124911D0895F894FFCF53
S10F03600100000000102892AABAEE0070
S9030000FC
